:1000000009C018C017C016C016C02DC013C012C03A
:1000100011C010C011271FBFCFE5D0E0DEBFCDBF9C
:1000200020E0A0E4B0E001C01D93A434B207E1F7E2
:100030002ED080C0E5CF1F930F930FB70F9310E022
:100040004F93EF93FF9341E0E2E4F0E04083E3E479
:10005000F0E040831DBDFF91EF914F910F910FBFD5
:100060000F911F9118951F930F930FB70F9310E0E7
:100070004F93EF93FF9341E0E3E4F0E04083FF917F
:10008000EF914F910F910FBF0F911F91189541B1B3
:10009000436041B9109A49EF50E041505040E9F7B0
:1000A00000C000007894E2E4F0E051E043E0A0E416
:1000B000B0E0C3E4D0E00299FECF10831EBD19BDAD
:1000C00018BD5BBD4DBD02990AC06081611307C0B8
:1000D00068B579B560317107B0F3119AF4CF68B59E
:1000E00079B5AF5FBF4F7C936E931DBD1198608152
:1000F000662319F0029BFECFDECF68B579B560317B
:100100007107C8F2109818831EBD6AB562606ABD97
:100110004BBD6C91AF5FBF4F7C91A150B04077BD9C
:1001200066BD19BD18BD4DBD68816623E9F31DBDCF
:08013000109AC1CFF894FFCF33
:00000001FF
